{
  "_format": "hh-sol-artifact-1",
  "contractName": "NFTMarket",
  "sourceName": "contracts/NFTMarketPlace.sol",
  "abi": [
    {
      "inputs": [],
      "stateMutability": "nonpayable",
      "type": "constructor"
    },
    {
      "anonymous": false,
      "inputs": [
        {
          "indexed": true,
          "internalType": "address",
          "name": "owner",
          "type": "address"
        },
        {
          "indexed": true,
          "internalType": "address",
          "name": "approved",
          "type": "address"
        },
        {
          "indexed": true,
          "internalType": "uint256",
          "name": "tokenId",
          "type": "uint256"
        }
      ],
      "name": "Approval",
      "type": "event"
    },
    {
      "anonymous": false,
      "inputs": [
        {
          "indexed": true,
          "internalType": "address",
          "name": "owner",
          "type": "address"
        },
        {
          "indexed": true,
          "internalType": "address",
          "name": "operator",
          "type": "address"
        },
        {
          "indexed": false,
          "internalType": "bool",
          "name": "approved",
          "type": "bool"
        }
      ],
      "name": "ApprovalForAll",
      "type": "event"
    },
    {
      "anonymous": false,
      "inputs": [
        {
          "indexed": false,
          "internalType": "uint256",
          "name": "tokenId",
          "type": "uint256"
        },
        {
          "indexed": false,
          "internalType": "address",
          "name": "from",
          "type": "address"
        },
        {
          "indexed": false,
          "internalType": "address",
          "name": "to",
          "type": "address"
        },
        {
          "indexed": false,
          "internalType": "uint256",
          "name": "price",
          "type": "uint256"
        }
      ],
      "name": "NFTTransfer",
      "type": "event"
    },
    {
      "anonymous": false,
      "inputs": [
        {
          "indexed": true,
          "internalType": "address",
          "name": "previousOwner",
          "type": "address"
        },
        {
          "indexed": true,
          "internalType": "address",
          "name": "newOwner",
          "type": "address"
        }
      ],
      "name": "OwnershipTransferred",
      "type": "event"
    },
    {
      "anonymous": false,
      "inputs": [
        {
          "indexed": true,
          "internalType": "address",
          "name": "from",
          "type": "address"
        },
        {
          "indexed": true,
          "internalType": "address",
          "name": "to",
          "type": "address"
        },
        {
          "indexed": true,
          "internalType": "uint256",
          "name": "tokenId",
          "type": "uint256"
        }
      ],
      "name": "Transfer",
      "type": "event"
    },
    {
      "inputs": [
        {
          "internalType": "address",
          "name": "to",
          "type": "address"
        },
        {
          "internalType": "uint256",
          "name": "tokenId",
          "type": "uint256"
        }
      ],
      "name": "approve",
      "outputs": [],
      "stateMutability": "nonpayable",
      "type": "function"
    },
    {
      "inputs": [
        {
          "internalType": "address",
          "name": "owner",
          "type": "address"
        }
      ],
      "name": "balanceOf",
      "outputs": [
        {
          "internalType": "uint256",
          "name": "",
          "type": "uint256"
        }
      ],
      "stateMutability": "view",
      "type": "function"
    },
    {
      "inputs": [
        {
          "internalType": "uint256",
          "name": "tokenId",
          "type": "uint256"
        }
      ],
      "name": "buyNFT",
      "outputs": [],
      "stateMutability": "payable",
      "type": "function"
    },
    {
      "inputs": [
        {
          "internalType": "uint256",
          "name": "tokenId",
          "type": "uint256"
        }
      ],
      "name": "cancelListing",
      "outputs": [],
      "stateMutability": "nonpayable",
      "type": "function"
    },
    {
      "inputs": [
        {
          "internalType": "string",
          "name": "tokenURI",
          "type": "string"
        }
      ],
      "name": "createNFT",
      "outputs": [],
      "stateMutability": "nonpayable",
      "type": "function"
    },
    {
      "inputs": [
        {
          "internalType": "uint256",
          "name": "tokenId",
          "type": "uint256"
        }
      ],
      "name": "getApproved",
      "outputs": [
        {
          "internalType": "address",
          "name": "",
          "type": "address"
        }
      ],
      "stateMutability": "view",
      "type": "function"
    },
    {
      "inputs": [],
      "name": "getLatestTokenId",
      "outputs": [
        {
          "internalType": "uint256",
          "name": "",
          "type": "uint256"
        }
      ],
      "stateMutability": "view",
      "type": "function"
    },
    {
      "inputs": [
        {
          "internalType": "uint256",
          "name": "tokenId",
          "type": "uint256"
        }
      ],
      "name": "getNFT",
      "outputs": [
        {
          "components": [
            {
              "internalType": "uint256",
              "name": "tokenId",
              "type": "uint256"
            },
            {
              "internalType": "address",
              "name": "seller",
              "type": "address"
            },
            {
              "internalType": "address",
              "name": "currentOwner",
              "type": "address"
            },
            {
              "internalType": "uint256",
              "name": "price",
              "type": "uint256"
            }
          ],
          "internalType": "struct NFTListing",
          "name": "",
          "type": "tuple"
        }
      ],
      "stateMutability": "view",
      "type": "function"
    },
    {
      "inputs": [
        {
          "internalType": "uint256",
          "name": "tokenId",
          "type": "uint256"
        }
      ],
      "name": "getOwners",
      "outputs": [
        {
          "internalType": "address[]",
          "name": "",
          "type": "address[]"
        }
      ],
      "stateMutability": "view",
      "type": "function"
    },
    {
      "inputs": [
        {
          "internalType": "address",
          "name": "owner",
          "type": "address"
        },
        {
          "internalType": "address",
          "name": "operator",
          "type": "address"
        }
      ],
      "name": "isApprovedForAll",
      "outputs": [
        {
          "internalType": "bool",
          "name": "",
          "type": "bool"
        }
      ],
      "stateMutability": "view",
      "type": "function"
    },
    {
      "inputs": [
        {
          "internalType": "uint256",
          "name": "tokenId",
          "type": "uint256"
        },
        {
          "internalType": "uint256",
          "name": "price",
          "type": "uint256"
        }
      ],
      "name": "listNFT",
      "outputs": [],
      "stateMutability": "nonpayable",
      "type": "function"
    },
    {
      "inputs": [],
      "name": "name",
      "outputs": [
        {
          "internalType": "string",
          "name": "",
          "type": "string"
        }
      ],
      "stateMutability": "view",
      "type": "function"
    },
    {
      "inputs": [],
      "name": "owner",
      "outputs": [
        {
          "internalType": "address",
          "name": "",
          "type": "address"
        }
      ],
      "stateMutability": "view",
      "type": "function"
    },
    {
      "inputs": [
        {
          "internalType": "uint256",
          "name": "tokenId",
          "type": "uint256"
        }
      ],
      "name": "ownerOf",
      "outputs": [
        {
          "internalType": "address",
          "name": "",
          "type": "address"
        }
      ],
      "stateMutability": "view",
      "type": "function"
    },
    {
      "inputs": [],
      "name": "renounceOwnership",
      "outputs": [],
      "stateMutability": "nonpayable",
      "type": "function"
    },
    {
      "inputs": [
        {
          "internalType": "address",
          "name": "from",
          "type": "address"
        },
        {
          "internalType": "address",
          "name": "to",
          "type": "address"
        },
        {
          "internalType": "uint256",
          "name": "tokenId",
          "type": "uint256"
        }
      ],
      "name": "safeTransferFrom",
      "outputs": [],
      "stateMutability": "nonpayable",
      "type": "function"
    },
    {
      "inputs": [
        {
          "internalType": "address",
          "name": "from",
          "type": "address"
        },
        {
          "internalType": "address",
          "name": "to",
          "type": "address"
        },
        {
          "internalType": "uint256",
          "name": "tokenId",
          "type": "uint256"
        },
        {
          "internalType": "bytes",
          "name": "data",
          "type": "bytes"
        }
      ],
      "name": "safeTransferFrom",
      "outputs": [],
      "stateMutability": "nonpayable",
      "type": "function"
    },
    {
      "inputs": [
        {
          "internalType": "address",
          "name": "operator",
          "type": "address"
        },
        {
          "internalType": "bool",
          "name": "approved",
          "type": "bool"
        }
      ],
      "name": "setApprovalForAll",
      "outputs": [],
      "stateMutability": "nonpayable",
      "type": "function"
    },
    {
      "inputs": [
        {
          "internalType": "bytes4",
          "name": "interfaceId",
          "type": "bytes4"
        }
      ],
      "name": "supportsInterface",
      "outputs": [
        {
          "internalType": "bool",
          "name": "",
          "type": "bool"
        }
      ],
      "stateMutability": "view",
      "type": "function"
    },
    {
      "inputs": [],
      "name": "symbol",
      "outputs": [
        {
          "internalType": "string",
          "name": "",
          "type": "string"
        }
      ],
      "stateMutability": "view",
      "type": "function"
    },
    {
      "inputs": [
        {
          "internalType": "uint256",
          "name": "tokenId",
          "type": "uint256"
        }
      ],
      "name": "tokenURI",
      "outputs": [
        {
          "internalType": "string",
          "name": "",
          "type": "string"
        }
      ],
      "stateMutability": "view",
      "type": "function"
    },
    {
      "inputs": [
        {
          "internalType": "address",
          "name": "from",
          "type": "address"
        },
        {
          "internalType": "address",
          "name": "to",
          "type": "address"
        },
        {
          "internalType": "uint256",
          "name": "tokenId",
          "type": "uint256"
        }
      ],
      "name": "transferFrom",
      "outputs": [],
      "stateMutability": "nonpayable",
      "type": "function"
    },
    {
      "inputs": [
        {
          "internalType": "address",
          "name": "newOwner",
          "type": "address"
        }
      ],
      "name": "transferOwnership",
      "outputs": [],
      "stateMutability": "nonpayable",
      "type": "function"
    },
    {
      "inputs": [],
      "name": "withdrawFunds",
      "outputs": [],
      "stateMutability": "nonpayable",
      "type": "function"
    }
  ],
  "bytecode": "0x60806040523480156200001157600080fd5b506040518060400160405280600481526020017f4e465473000000000000000000000000000000000000000000000000000000008152506040518060400160405280600381526020017f4e4654000000000000000000000000000000000000000000000000000000000081525081600090816200008f919062000412565b508060019081620000a1919062000412565b505050620000c4620000b8620000ca60201b60201c565b620000d260201b60201c565b620004f9565b600033905090565b6000600760009054906101000a900473ffffffffffffffffffffffffffffffffffffffff16905081600760006101000a81548173ffffffffffffffffffffffffffffffffffffffff021916908373ffffffffffffffffffffffffffffffffffffffff1602179055508173ffffffffffffffffffffffffffffffffffffffff168173ffffffffffffffffffffffffffffffffffffffff167f8be0079c531659141344cd1fd0a4f28419497f9722a3daafe3b4186f6b6457e060405160405180910390a35050565b600081519050919050565b7f4e487b7100000000000000000000000000000000000000000000000000000000600052604160045260246000fd5b7f4e487b7100000000000000000000000000000000000000000000000000000000600052602260045260246000fd5b600060028204905060018216806200021a57607f821691505b60208210810362000230576200022f620001d2565b5b50919050565b60008190508160005260206000209050919050565b60006020601f8301049050919050565b600082821b905092915050565b6000600883026200029a7fffffffffffffffffffffffffffffffffffffffffffffffffffffffffffffffff826200025b565b620002a686836200025b565b95508019841693508086168417925050509392505050565b6000819050919050565b6000819050919050565b6000620002f3620002ed620002e784620002be565b620002c8565b620002be565b9050919050565b6000819050919050565b6200030f83620002d2565b620003276200031e82620002fa565b84845462000268565b825550505050565b600090565b6200033e6200032f565b6200034b81848462000304565b505050565b5b8181101562000373576200036760008262000334565b60018101905062000351565b5050565b601f821115620003c2576200038c8162000236565b62000397846200024b565b81016020851015620003a7578190505b620003bf620003b6856200024b565b83018262000350565b50505b505050565b600082821c905092915050565b6000620003e760001984600802620003c7565b1980831691505092915050565b6000620004028383620003d4565b9150826002028217905092915050565b6200041d8262000198565b67ffffffffffffffff811115620004395762000438620001a3565b5b62000445825462000201565b6200045282828562000377565b600060209050601f8311600181146200048a576000841562000475578287015190505b620004818582620003f4565b865550620004f1565b601f1984166200049a8662000236565b60005b82811015620004c4578489015182556001820191506020850194506020810190506200049d565b86831015620004e45784890151620004e0601f891682620003d4565b8355505b6001600288020188555050505b505050505050565b61422b80620005096000396000f3fe60806040526004361061014b5760003560e01c806370a08231116100b6578063b88d4fde1161006f578063b88d4fde1461046d578063c87b56dd14610496578063da2ed03e146104d3578063e985e9c5146104fc578063ee4525d514610539578063f2fde38b146105765761014b565b806370a0823114610371578063715018a6146103ae5780638da5cb5b146103c557806394383f14146103f057806395d89b4114610419578063a22cb465146104445761014b565b806325d112a91161010857806325d112a91461025e578063305a67a81461028957806342842e0e146102b257806351ed8288146102db578063576f7ea7146102f75780636352211e146103345761014b565b806301ffc9a71461015057806306fdde031461018d578063081812fc146101b8578063095ea7b3146101f557806323b872dd1461021e57806324600fc314610247575b600080fd5b34801561015c57600080fd5b5061017760048036038101906101729190612b01565b61059f565b6040516101849190612b49565b60405180910390f35b34801561019957600080fd5b506101a2610681565b6040516101af9190612bf4565b60405180910390f35b3480156101c457600080fd5b506101df60048036038101906101da9190612c4c565b610713565b6040516101ec9190612cba565b60405180910390f35b34801561020157600080fd5b5061021c60048036038101906102179190612d01565b610759565b005b34801561022a57600080fd5b5061024560048036038101906102409190612d41565b610870565b005b34801561025357600080fd5b5061025c6108d0565b005b34801561026a57600080fd5b5061027361096a565b6040516102809190612da3565b60405180910390f35b34801561029557600080fd5b506102b060048036038101906102ab9190612c4c565b61097b565b005b3480156102be57600080fd5b506102d960048036038101906102d49190612d41565b610bd0565b005b6102f560048036038101906102f09190612c4c565b610bf0565b005b34801561030357600080fd5b5061031e60048036038101906103199190612c4c565b610f7c565b60405161032b9190612e31565b60405180910390f35b34801561034057600080fd5b5061035b60048036038101906103569190612c4c565b611069565b6040516103689190612cba565b60405180910390f35b34801561037d57600080fd5b5061039860048036038101906103939190612e4c565b6110ef565b6040516103a59190612da3565b60405180910390f35b3480156103ba57600080fd5b506103c36111a6565b005b3480156103d157600080fd5b506103da6111ba565b6040516103e79190612cba565b60405180910390f35b3480156103fc57600080fd5b5061041760048036038101906104129190612e79565b6111e4565b005b34801561042557600080fd5b5061042e6112e3565b60405161043b9190612bf4565b60405180910390f35b34801561045057600080fd5b5061046b60048036038101906104669190612ee5565b611375565b005b34801561047957600080fd5b50610494600480360381019061048f919061305a565b61138b565b005b3480156104a257600080fd5b506104bd60048036038101906104b89190612c4c565b6113ed565b6040516104ca9190612bf4565b60405180910390f35b3480156104df57600080fd5b506104fa60048036038101906104f5919061317e565b6114ff565b005b34801561050857600080fd5b50610523600480360381019061051e91906131c7565b6116e9565b6040516105309190612b49565b60405180910390f35b34801561054557600080fd5b50610560600480360381019061055b9190612c4c565b61177d565b60405161056d91906132b6565b60405180910390f35b34801561058257600080fd5b5061059d60048036038101906105989190612e4c565b61181e565b005b60007f80ac58cd000000000000000000000000000000000000000000000000000000007bffffffffffffffffffffffffffffffffffffffffffffffffffffffff1916827bffffffffffffffffffffffffffffffffffffffffffffffffffffffff1916148061066a57507f5b5e139f000000000000000000000000000000000000000000000000000000007bffffffffffffffffffffffffffffffffffffffffffffffffffffffff1916827bffffffffffffffffffffffffffffffffffffffffffffffffffffffff1916145b8061067a5750610679826118a1565b5b9050919050565b60606000805461069090613307565b80601f01602080910402602001604051908101604052809291908181526020018280546106bc90613307565b80156107095780601f106106de57610100808354040283529160200191610709565b820191906000526020600020905b8154815290600101906020018083116106ec57829003601f168201915b5050505050905090565b600061071e8261190b565b6004600083815260200190815260200160002060009054906101000a900473ffffffffffffffffffffffffffffffffffffffff169050919050565b600061076482611069565b90508073ffffffffffffffffffffffffffffffffffffffff168373ffffffffffffffffffffffffffffffffffffffff16036107d4576040517f08c379a00000000000000000000000000000000000000000000000000000000081526004016107cb906133aa565b60405180910390fd5b8073ffffffffffffffffffffffffffffffffffffffff166107f3611956565b73ffffffffffffffffffffffffffffffffffffffff16148061082257506108218161081c611956565b6116e9565b5b610861576040517f08c379a00000000000000000000000000000000000000000000000000000000081526004016108589061343c565b60405180910390fd5b61086b838361195e565b505050565b61088161087b611956565b82611a17565b6108c0576040517f08c379a00000000000000000000000000000000000000000000000000000000081526004016108b7906134ce565b60405180910390fd5b6108cb838383611aac565b505050565b6108d8611da5565b600047905060008111610920576040517f08c379a00000000000000000000000000000000000000000000000000000000081526004016109179061353a565b60405180910390fd5b3373ffffffffffffffffffffffffffffffffffffffff166108fc829081150290604051600060405180830381858888f19350505050158015610966573d6000803e3d6000fd5b5050565b60006109766008611e23565b905090565b600060096000838152602001908152602001600020604051806080016040529081600082015481526020016001820160009054906101000a900473ffffffffffffffffffffffffffffffffffffffff1673ffffffffffffffffffffffffffffffffffffffff1673ffffffffffffffffffffffffffffffffffffffff1681526020016002820160009054906101000a900473ffffffffffffffffffffffffffffffffffffffff1673ffffffffffffffffffffffffffffffffffffffff1673ffffffffffffffffffffffffffffffffffffffff16815260200160038201548152505090506000816060015111610aa4576040517f08c379a0000000000000000000000000000000000000000000000000000000008152600401610a9b906135cc565b60405180910390fd5b3373ffffffffffffffffffffffffffffffffffffffff16816040015173ffffffffffffffffffffffffffffffffffffffff1614610b16576040517f08c379a0000000000000000000000000000000000000000000000000000000008152600401610b0d90613638565b60405180910390fd5b3073ffffffffffffffffffffffffffffffffffffffff166323b872dd3033856040518463ffffffff1660e01b8152600401610b5393929190613658565b600060405180830381600087803b158015610b6d57600080fd5b505af1158015610b81573d6000803e3d6000fd5b50505050610b8e82611e31565b7f36ff82258187d826cbb33b846128bb1002b8652e641f4051aaa45394814ca8548230336000604051610bc494939291906136d4565b60405180910390a15050565b610beb8383836040518060200160405280600081525061138b565b505050565b600060096000838152602001908152602001600020604051806080016040529081600082015481526020016001820160009054906101000a900473ffffffffffffffffffffffffffffffffffffffff1673ffffffffffffffffffffffffffffffffffffffff1673ffffffffffffffffffffffffffffffffffffffff1681526020016002820160009054906101000a900473ffffffffffffffffffffffffffffffffffffffff1673ffffffffffffffffffffffffffffffffffffffff1673ffffffffffffffffffffffffffffffffffffffff16815260200160038201548152505090506000816060015111610d19576040517f08c379a0000000000000000000000000000000000000000000000000000000008152600401610d10906135cc565b60405180910390fd5b3073ffffffffffffffffffffffffffffffffffffffff166323b872dd3033856040518463ffffffff1660e01b8152600401610d5693929190613658565b600060405180830381600087803b158015610d7057600080fd5b505af1158015610d84573d6000803e3d6000fd5b50505050600081606001818152505033816040019073ffffffffffffffffffffffffffffffffffffffff16908173ffffffffffffffffffffffffffffffffffffffff16815250506000816020019073ffffffffffffffffffffffffffffffffffffffff16908173ffffffffffffffffffffffffffffffffffffffff168152505080600960008481526020019081526020016000206000820151816000015560208201518160010160006101000a81548173ffffffffffffffffffffffffffffffffffffffff021916908373ffffffffffffffffffffffffffffffffffffffff16021790555060408201518160020160006101000a81548173ffffffffffffffffffffffffffffffffffffffff021916908373ffffffffffffffffffffffffffffffffffffffff16021790555060608201518160030155905050600a6000838152602001908152602001600020339080600181540180825580915050600190039060005260206000200160009091909190916101000a81548173ffffffffffffffffffffffffffffffffffffffff021916908373ffffffffffffffffffffffffffffffffffffffff160217905550610f3a82611e31565b7f36ff82258187d826cbb33b846128bb1002b8652e641f4051aaa45394814ca8548230336000604051610f7094939291906136d4565b60405180910390a15050565b610f84612a41565b60096000838152602001908152602001600020604051806080016040529081600082015481526020016001820160009054906101000a900473ffffffffffffffffffffffffffffffffffffffff1673ffffffffffffffffffffffffffffffffffffffff1673ffffffffffffffffffffffffffffffffffffffff1681526020016002820160009054906101000a900473ffffffffffffffffffffffffffffffffffffffff1673ffffffffffffffffffffffffffffffffffffffff1673ffffffffffffffffffffffffffffffffffffffff1681526020016003820154815250509050919050565b60008061107583611ea6565b9050600073ffffffffffffffffffffffffffffffffffffffff168173ffffffffffffffffffffffffffffffffffffffff16036110e6576040517f08c379a00000000000000000000000000000000000000000000000000000000081526004016110dd90613765565b60405180910390fd5b80915050919050565b60008073ffffffffffffffffffffffffffffffffffffffff168273ffffffffffffffffffffffffffffffffffffffff160361115f576040517f08c379a0000000000000000000000000000000000000000000000000000000008152600401611156906137f7565b60405180910390fd5b600360008373ffffffffffffffffffffffffffffffffffffffff1673ffffffffffffffffffffffffffffffffffffffff168152602001908152602001600020549050919050565b6111ae611da5565b6111b86000611ee3565b565b6000600760009054906101000a900473ffffffffffffffffffffffffffffffffffffffff16905090565b60008111611227576040517f08c379a000000000000000000000000000000000000000000000000000000000815260040161121e90613889565b60405180910390fd5b611232333084610870565b806009600084815260200190815260200160002060030181905550306009600084815260200190815260200160002060010160006101000a81548173ffffffffffffffffffffffffffffffffffffffff021916908373ffffffffffffffffffffffffffffffffffffffff1602179055507f36ff82258187d826cbb33b846128bb1002b8652e641f4051aaa45394814ca854823330846040516112d794939291906138a9565b60405180910390a15050565b6060600180546112f290613307565b80601f016020809104026020016040519081016040528092919081815260200182805461131e90613307565b801561136b5780601f106113405761010080835404028352916020019161136b565b820191906000526020600020905b81548152906001019060200180831161134e57829003601f168201915b5050505050905090565b611387611380611956565b8383611fa9565b5050565b61139c611396611956565b83611a17565b6113db576040517f08c379a00000000000000000000000000000000000000000000000000000000081526004016113d2906134ce565b60405180910390fd5b6113e784848484612115565b50505050565b60606113f88261190b565b600060066000848152602001908152602001600020805461141890613307565b80601f016020809104026020016040519081016040528092919081815260200182805461144490613307565b80156114915780601f1061146657610100808354040283529160200191611491565b820191906000526020600020905b81548152906001019060200180831161147457829003601f168201915b5050505050905060006114a2612171565b905060008151036114b75781925050506114fa565b6000825111156114ec5780826040516020016114d492919061392a565b604051602081830303815290604052925050506114fa565b6114f584612188565b925050505b919050565b61150960086121f0565b60006115156008611e23565b90506040518060800160405280828152602001600073ffffffffffffffffffffffffffffffffffffffff1681526020013373ffffffffffffffffffffffffffffffffffffffff1681526020016000815250600960008381526020019081526020016000206000820151816000015560208201518160010160006101000a81548173ffffffffffffffffffffffffffffffffffffffff021916908373ffffffffffffffffffffffffffffffffffffffff16021790555060408201518160020160006101000a81548173ffffffffffffffffffffffffffffffffffffffff021916908373ffffffffffffffffffffffffffffffffffffffff160217905550606082015181600301559050506116283382612206565b6116328183612224565b600a6000828152602001908152602001600020339080600181540180825580915050600190039060005260206000200160009091909190916101000a81548173ffffffffffffffffffffffffffffffffffffffff021916908373ffffffffffffffffffffffffffffffffffffffff1602179055507f36ff82258187d826cbb33b846128bb1002b8652e641f4051aaa45394814ca8548160003360006040516116dd94939291906136d4565b60405180910390a15050565b6000600560008473ffffffffffffffffffffffffffffffffffffffff1673ffffffffffffffffffffffffffffffffffffffff16815260200190815260200160002060008373ffffffffffffffffffffffffffffffffffffffff1673ffffffffffffffffffffffffffffffffffffffff16815260200190815260200160002060009054906101000a900460ff16905092915050565b6060600a600083815260200190815260200160002080548060200260200160405190810160405280929190818152602001828054801561181257602002820191906000526020600020905b8160009054906101000a900473ffffffffffffffffffffffffffffffffffffffff1673ffffffffffffffffffffffffffffffffffffffff16815260200190600101908083116117c8575b50505050509050919050565b611826611da5565b600073ffffffffffffffffffffffffffffffffffffffff168173ffffffffffffffffffffffffffffffffffffffff1603611895576040517f08c379a000000000000000000000000000000000000000000000000000000000815260040161188c906139c0565b60405180910390fd5b61189e81611ee3565b50565b60007f01ffc9a7000000000000000000000000000000000000000000000000000000007bffffffffffffffffffffffffffffffffffffffffffffffffffffffff1916827bffffffffffffffffffffffffffffffffffffffffffffffffffffffff1916149050919050565b61191481612291565b611953576040517f08c379a000000000000000000000000000000000000000000000000000000000815260040161194a90613765565b60405180910390fd5b50565b600033905090565b816004600083815260200190815260200160002060006101000a81548173ffffffffffffffffffffffffffffffffffffffff021916908373ffffffffffffffffffffffffffffffffffffffff160217905550808273ffffffffffffffffffffffffffffffffffffffff166119d183611069565b73ffffffffffffffffffffffffffffffffffffffff167f8c5be1e5ebec7d5bd14f71427d1e84f3dd0314c0f7b2291e5b200ac8c7c3b92560405160405180910390a45050565b600080611a2383611069565b90508073ffffffffffffffffffffffffffffffffffffffff168473ffffffffffffffffffffffffffffffffffffffff161480611a655750611a6481856116e9565b5b80611aa357508373ffffffffffffffffffffffffffffffffffffffff16611a8b84610713565b73ffffffffffffffffffffffffffffffffffffffff16145b91505092915050565b8273ffffffffffffffffffffffffffffffffffffffff16611acc82611069565b73ffffffffffffffffffffffffffffffffffffffff1614611b22576040517f08c379a0000000000000000000000000000000000000000000000000000000008152600401611b1990613a52565b60405180910390fd5b600073ffffffffffffffffffffffffffffffffffffffff168273ffffffffffffffffffffffffffffffffffffffff1603611b91576040517f08c379a0000000000000000000000000000000000000000000000000000000008152600401611b8890613ae4565b60405180910390fd5b611b9e83838360016122d2565b8273ffffffffffffffffffffffffffffffffffffffff16611bbe82611069565b73ffffffffffffffffffffffffffffffffffffffff1614611c14576040517f08c379a0000000000000000000000000000000000000000000000000000000008152600401611c0b90613a52565b60405180910390fd5b6004600082815260200190815260200160002060006101000a81549073ffffffffffffffffffffffffffffffffffffffff02191690556001600360008573ffffffffffffffffffffffffffffffffffffffff1673ffffffffffffffffffffffffffffffffffffffff168152602001908152602001600020600082825403925050819055506001600360008473ffffffffffffffffffffffffffffffffffffffff1673ffffffffffffffffffffffffffffffffffffffff16815260200190815260200160002060008282540192505081905550816002600083815260200190815260200160002060006101000a81548173ffffffffffffffffffffffffffffffffffffffff021916908373ffffffffffffffffffffffffffffffffffffffff160217905550808273ffffffffffffffffffffffffffffffffffffffff168473ffffffffffffffffffffffffffffffffffffffff167fddf252ad1be2c89b69c2b068fc378daa952ba7f163c4a11628f55a4df523b3ef60405160405180910390a4611da083838360016123f8565b505050565b611dad611956565b73ffffffffffffffffffffffffffffffffffffffff16611dcb6111ba565b73ffffffffffffffffffffffffffffffffffffffff1614611e21576040517f08c379a0000000000000000000000000000000000000000000000000000000008152600401611e1890613b50565b60405180910390fd5b565b600081600001549050919050565b6000600960008381526020019081526020016000206003018190555060006009600083815260200190815260200160002060010160006101000a81548173ffffffffffffffffffffffffffffffffffffffff021916908373ffffffffffffffffffffffffffffffffffffffff16021790555050565b60006002600083815260200190815260200160002060009054906101000a900473ffffffffffffffffffffffffffffffffffffffff169050919050565b6000600760009054906101000a900473ffffffffffffffffffffffffffffffffffffffff16905081600760006101000a81548173ffffffffffffffffffffffffffffffffffffffff021916908373ffffffffffffffffffffffffffffffffffffffff1602179055508173ffffffffffffffffffffffffffffffffffffffff168173ffffffffffffffffffffffffffffffffffffffff167f8be0079c531659141344cd1fd0a4f28419497f9722a3daafe3b4186f6b6457e060405160405180910390a35050565b8173ffffffffffffffffffffffffffffffffffffffff168373ffffffffffffffffffffffffffffffffffffffff1603612017576040517f08c379a000000000000000000000000000000000000000000000000000000000815260040161200e90613bbc565b60405180910390fd5b80600560008573ffffffffffffffffffffffffffffffffffffffff1673ffffffffffffffffffffffffffffffffffffffff16815260200190815260200160002060008473ffffffffffffffffffffffffffffffffffffffff1673ffffffffffffffffffffffffffffffffffffffff16815260200190815260200160002060006101000a81548160ff0219169083151502179055508173ffffffffffffffffffffffffffffffffffffffff168373ffffffffffffffffffffffffffffffffffffffff167f17307eab39ab6107e8899845ad3d59bd9653f200f220920489ca2b5937696c31836040516121089190612b49565b60405180910390a3505050565b612120848484611aac565b61212c848484846123fe565b61216b576040517f08c379a000000000000000000000000000000000000000000000000000000000815260040161216290613c4e565b60405180910390fd5b50505050565b606060405180602001604052806000815250905090565b60606121938261190b565b600061219d612171565b905060008151116121bd57604051806020016040528060008152506121e8565b806121c784612585565b6040516020016121d892919061392a565b6040516020818303038152906040525b915050919050565b6001816000016000828254019250508190555050565b612220828260405180602001604052806000815250612653565b5050565b61222d82612291565b61226c576040517f08c379a000000000000000000000000000000000000000000000000000000000815260040161226390613ce0565b60405180910390fd5b8060066000848152602001908152602001600020908161228c9190613ea2565b505050565b60008073ffffffffffffffffffffffffffffffffffffffff166122b383611ea6565b73ffffffffffffffffffffffffffffffffffffffff1614159050919050565b60018111156123f257600073ffffffffffffffffffffffffffffffffffffffff168473ffffffffffffffffffffffffffffffffffffffff16146123665780600360008673ffffffffffffffffffffffffffffffffffffffff1673ffffffffffffffffffffffffffffffffffffffff168152602001908152602001600020600082825461235e9190613fa3565b925050819055505b600073ffffffffffffffffffffffffffffffffffffffff168373ffffffffffffffffffffffffffffffffffffffff16146123f15780600360008573ffffffffffffffffffffffffffffffffffffffff1673ffffffffffffffffffffffffffffffffffffffff16815260200190815260200160002060008282546123e99190613fd7565b925050819055505b5b50505050565b50505050565b600061241f8473ffffffffffffffffffffffffffffffffffffffff166126ae565b15612578578373ffffffffffffffffffffffffffffffffffffffff1663150b7a02612448611956565b8786866040518563ffffffff1660e01b815260040161246a9493929190614060565b6020604051808303816000875af19250505080156124a657506040513d601f19601f820116820180604052508101906124a391906140c1565b60015b612528573d80600081146124d6576040519150601f19603f3d011682016040523d82523d6000602084013e6124db565b606091505b506000815103612520576040517f08c379a000000000000000000000000000000000000000000000000000000000815260040161251790613c4e565b60405180910390fd5b805181602001fd5b63150b7a0260e01b7bffffffffffffffffffffffffffffffffffffffffffffffffffffffff1916817bffffffffffffffffffffffffffffffffffffffffffffffffffffffff19161491505061257d565b600190505b949350505050565b606060006001612594846126d1565b01905060008167ffffffffffffffff8111156125b3576125b2612f2f565b5b6040519080825280601f01601f1916602001820160405280156125e55781602001600182028036833780820191505090505b509050600082602001820190505b600115612648578080600190039150507f3031323334353637383961626364656600000000000000000000000000000000600a86061a8153600a858161263c5761263b6140ee565b5b049450600085036125f3575b819350505050919050565b61265d8383612824565b61266a60008484846123fe565b6126a9576040517f08c379a00000000000000000000000000000000000000000000000000000000081526004016126a090613c4e565b60405180910390fd5b505050565b6000808273ffffffffffffffffffffffffffffffffffffffff163b119050919050565b600080600090507a184f03e93ff9f4daa797ed6e38ed64bf6a1f010000000000000000831061272f577a184f03e93ff9f4daa797ed6e38ed64bf6a1f0100000000000000008381612725576127246140ee565b5b0492506040810190505b6d04ee2d6d415b85acef8100000000831061276c576d04ee2d6d415b85acef81000000008381612762576127616140ee565b5b0492506020810190505b662386f26fc10000831061279b57662386f26fc100008381612791576127906140ee565b5b0492506010810190505b6305f5e10083106127c4576305f5e10083816127ba576127b96140ee565b5b0492506008810190505b61271083106127e95761271083816127df576127de6140ee565b5b0492506004810190505b6064831061280c5760648381612802576128016140ee565b5b0492506002810190505b600a831061281b576001810190505b80915050919050565b600073ffffffffffffffffffffffffffffffffffffffff168273ffffffffffffffffffffffffffffffffffffffff1603612893576040517f08c379a000000000000000000000000000000000000000000000000000000000815260040161288a90614169565b60405180910390fd5b61289c81612291565b156128dc576040517f08c379a00000000000000000000000000000000000000000000000000000000081526004016128d3906141d5565b60405180910390fd5b6128ea6000838360016122d2565b6128f381612291565b15612933576040517f08c379a000000000000000000000000000000000000000000000000000000000815260040161292a906141d5565b60405180910390fd5b6001600360008473ffffffffffffffffffffffffffffffffffffffff1673ffffffffffffffffffffffffffffffffffffffff16815260200190815260200160002060008282540192505081905550816002600083815260200190815260200160002060006101000a81548173ffffffffffffffffffffffffffffffffffffffff021916908373ffffffffffffffffffffffffffffffffffffffff160217905550808273ffffffffffffffffffffffffffffffffffffffff16600073ffffffffffffffffffffffffffffffffffffffff167fddf252ad1be2c89b69c2b068fc378daa952ba7f163c4a11628f55a4df523b3ef60405160405180910390a4612a3d6000838360016123f8565b5050565b604051806080016040528060008152602001600073ffffffffffffffffffffffffffffffffffffffff168152602001600073ffffffffffffffffffffffffffffffffffffffff168152602001600081525090565b6000604051905090565b600080fd5b600080fd5b60007fffffffff0000000000000000000000000000000000000000000000000000000082169050919050565b612ade81612aa9565b8114612ae957600080fd5b50565b600081359050612afb81612ad5565b92915050565b600060208284031215612b1757612b16612a9f565b5b6000612b2584828501612aec565b91505092915050565b60008115159050919050565b612b4381612b2e565b82525050565b6000602082019050612b5e6000830184612b3a565b92915050565b600081519050919050565b600082825260208201905092915050565b60005b83811015612b9e578082015181840152602081019050612b83565b60008484015250505050565b6000601f19601f8301169050919050565b6000612bc682612b64565b612bd08185612b6f565b9350612be0818560208601612b80565b612be981612baa565b840191505092915050565b60006020820190508181036000830152612c0e8184612bbb565b905092915050565b6000819050919050565b612c2981612c16565b8114612c3457600080fd5b50565b600081359050612c4681612c20565b92915050565b600060208284031215612c6257612c61612a9f565b5b6000612c7084828501612c37565b91505092915050565b600073ffffffffffffffffffffffffffffffffffffffff82169050919050565b6000612ca482612c79565b9050919050565b612cb481612c99565b82525050565b6000602082019050612ccf6000830184612cab565b92915050565b612cde81612c99565b8114612ce957600080fd5b50565b600081359050612cfb81612cd5565b92915050565b60008060408385031215612d1857612d17612a9f565b5b6000612d2685828601612cec565b9250506020612d3785828601612c37565b9150509250929050565b600080600060608486031215612d5a57612d59612a9f565b5b6000612d6886828701612cec565b9350506020612d7986828701612cec565b9250506040612d8a86828701612c37565b9150509250925092565b612d9d81612c16565b82525050565b6000602082019050612db86000830184612d94565b92915050565b612dc781612c16565b82525050565b612dd681612c99565b82525050565b608082016000820151612df26000850182612dbe565b506020820151612e056020850182612dcd565b506040820151612e186040850182612dcd565b506060820151612e2b6060850182612dbe565b50505050565b6000608082019050612e466000830184612ddc565b92915050565b600060208284031215612e6257612e61612a9f565b5b6000612e7084828501612cec565b91505092915050565b60008060408385031215612e9057612e8f612a9f565b5b6000612e9e85828601612c37565b9250506020612eaf85828601612c37565b9150509250929050565b612ec281612b2e565b8114612ecd57600080fd5b50565b600081359050612edf81612eb9565b92915050565b60008060408385031215612efc57612efb612a9f565b5b6000612f0a85828601612cec565b9250506020612f1b85828601612ed0565b9150509250929050565b600080fd5b600080fd5b7f4e487b7100000000000000000000000000000000000000000000000000000000600052604160045260246000fd5b612f6782612baa565b810181811067ffffffffffffffff82111715612f8657612f85612f2f565b5b80604052505050565b6000612f99612a95565b9050612fa58282612f5e565b919050565b600067ffffffffffffffff821115612fc557612fc4612f2f565b5b612fce82612baa565b9050602081019050919050565b82818337600083830152505050565b6000612ffd612ff884612faa565b612f8f565b90508281526020810184848401111561301957613018612f2a565b5b613024848285612fdb565b509392505050565b600082601f83011261304157613040612f25565b5b8135613051848260208601612fea565b91505092915050565b6000806000806080858703121561307457613073612a9f565b5b600061308287828801612cec565b945050602061309387828801612cec565b93505060406130a487828801612c37565b925050606085013567ffffffffffffffff8111156130c5576130c4612aa4565b5b6130d18782880161302c565b91505092959194509250565b600067ffffffffffffffff8211156130f8576130f7612f2f565b5b61310182612baa565b9050602081019050919050565b600061312161311c846130dd565b612f8f565b90508281526020810184848401111561313d5761313c612f2a565b5b613148848285612fdb565b509392505050565b600082601f83011261316557613164612f25565b5b813561317584826020860161310e565b91505092915050565b60006020828403121561319457613193612a9f565b5b600082013567ffffffffffffffff8111156131b2576131b1612aa4565b5b6131be84828501613150565b91505092915050565b600080604083850312156131de576131dd612a9f565b5b60006131ec85828601612cec565b92505060206131fd85828601612cec565b9150509250929050565b600081519050919050565b600082825260208201905092915050565b6000819050602082019050919050565b600061323f8383612dcd565b60208301905092915050565b6000602082019050919050565b600061326382613207565b61326d8185613212565b935061327883613223565b8060005b838110156132a95781516132908882613233565b975061329b8361324b565b92505060018101905061327c565b5085935050505092915050565b600060208201905081810360008301526132d08184613258565b905092915050565b7f4e487b7100000000000000000000000000000000000000000000000000000000600052602260045260246000fd5b6000600282049050600182168061331f57607f821691505b602082108103613332576133316132d8565b5b50919050565b7f4552433732313a20617070726f76616c20746f2063757272656e74206f776e6560008201527f7200000000000000000000000000000000000000000000000000000000000000602082015250565b6000613394602183612b6f565b915061339f82613338565b604082019050919050565b600060208201905081810360008301526133c381613387565b9050919050565b7f4552433732313a20617070726f76652063616c6c6572206973206e6f7420746f60008201527f6b656e206f776e6572206f7220617070726f76656420666f7220616c6c000000602082015250565b6000613426603d83612b6f565b9150613431826133ca565b604082019050919050565b6000602082019050818103600083015261345581613419565b9050919050565b7f4552433732313a2063616c6c6572206973206e6f7420746f6b656e206f776e6560008201527f72206f7220617070726f76656400000000000000000000000000000000000000602082015250565b60006134b8602d83612b6f565b91506134c38261345c565b604082019050919050565b600060208201905081810360008301526134e7816134ab565b9050919050565b7f4e46544d61726b65743a2062616c616e6365206973207a65726f000000000000600082015250565b6000613524601a83612b6f565b915061352f826134ee565b602082019050919050565b6000602082019050818103600083015261355381613517565b9050919050565b7f4e46544d61726b65743a206e6674206e6f74206c697374656420666f7220736160008201527f6c65000000000000000000000000000000000000000000000000000000000000602082015250565b60006135b6602283612b6f565b91506135c18261355a565b604082019050919050565b600060208201905081810360008301526135e5816135a9565b9050919050565b7f4e46544d61726b65743a20796f75277265206e6f74207468652073656c6c6572600082015250565b6000613622602083612b6f565b915061362d826135ec565b602082019050919050565b6000602082019050818103600083015261365181613615565b9050919050565b600060608201905061366d6000830186612cab565b61367a6020830185612cab565b6136876040830184612d94565b949350505050565b6000819050919050565b6000819050919050565b60006136be6136b96136b48461368f565b613699565b612c16565b9050919050565b6136ce816136a3565b82525050565b60006080820190506136e96000830187612d94565b6136f66020830186612cab565b6137036040830185612cab565b61371060608301846136c5565b95945050505050565b7f4552433732313a20696e76616c696420746f6b656e2049440000000000000000600082015250565b600061374f601883612b6f565b915061375a82613719565b602082019050919050565b6000602082019050818103600083015261377e81613742565b9050919050565b7f4552433732313a2061646472657373207a65726f206973206e6f74206120766160008201527f6c6964206f776e65720000000000000000000000000000000000000000000000602082015250565b60006137e1602983612b6f565b91506137ec82613785565b604082019050919050565b60006020820190508181036000830152613810816137d4565b9050919050565b7f4e46544d61726b65743a207072696365206d757374206265206772656174657260008201527f207468616e203000000000000000000000000000000000000000000000000000602082015250565b6000613873602783612b6f565b915061387e82613817565b604082019050919050565b600060208201905081810360008301526138a281613866565b9050919050565b60006080820190506138be6000830187612d94565b6138cb6020830186612cab565b6138d86040830185612cab565b6138e56060830184612d94565b95945050505050565b600081905092915050565b600061390482612b64565b61390e81856138ee565b935061391e818560208601612b80565b80840191505092915050565b600061393682856138f9565b915061394282846138f9565b91508190509392505050565b7f4f776e61626c653a206e6577206f776e657220697320746865207a65726f206160008201527f6464726573730000000000000000000000000000000000000000000000000000602082015250565b60006139aa602683612b6f565b91506139b58261394e565b604082019050919050565b600060208201905081810360008301526139d98161399d565b9050919050565b7f4552433732313a207472616e736665722066726f6d20696e636f72726563742060008201527f6f776e6572000000000000000000000000000000000000000000000000000000602082015250565b6000613a3c602583612b6f565b9150613a47826139e0565b604082019050919050565b60006020820190508181036000830152613a6b81613a2f565b9050919050565b7f4552433732313a207472616e7366657220746f20746865207a65726f2061646460008201527f7265737300000000000000000000000000000000000000000000000000000000602082015250565b6000613ace602483612b6f565b9150613ad982613a72565b604082019050919050565b60006020820190508181036000830152613afd81613ac1565b9050919050565b7f4f776e61626c653a2063616c6c6572206973206e6f7420746865206f776e6572600082015250565b6000613b3a602083612b6f565b9150613b4582613b04565b602082019050919050565b60006020820190508181036000830152613b6981613b2d565b9050919050565b7f4552433732313a20617070726f766520746f2063616c6c657200000000000000600082015250565b6000613ba6601983612b6f565b9150613bb182613b70565b602082019050919050565b60006020820190508181036000830152613bd581613b99565b9050919050565b7f4552433732313a207472616e7366657220746f206e6f6e20455243373231526560008201527f63656976657220696d706c656d656e7465720000000000000000000000000000602082015250565b6000613c38603283612b6f565b9150613c4382613bdc565b604082019050919050565b60006020820190508181036000830152613c6781613c2b565b9050919050565b7f45524337323155524953746f726167653a2055524920736574206f66206e6f6e60008201527f6578697374656e7420746f6b656e000000000000000000000000000000000000602082015250565b6000613cca602e83612b6f565b9150613cd582613c6e565b604082019050919050565b60006020820190508181036000830152613cf981613cbd565b9050919050565b60008190508160005260206000209050919050565b60006020601f8301049050919050565b600082821b905092915050565b600060088302613d627fffffffffffffffffffffffffffffffffffffffffffffffffffffffffffffffff82613d25565b613d6c8683613d25565b95508019841693508086168417925050509392505050565b6000613d9f613d9a613d9584612c16565b613699565b612c16565b9050919050565b6000819050919050565b613db983613d84565b613dcd613dc582613da6565b848454613d32565b825550505050565b600090565b613de2613dd5565b613ded818484613db0565b505050565b5b81811015613e1157613e06600082613dda565b600181019050613df3565b5050565b601f821115613e5657613e2781613d00565b613e3084613d15565b81016020851015613e3f578190505b613e53613e4b85613d15565b830182613df2565b50505b505050565b600082821c905092915050565b6000613e7960001984600802613e5b565b1980831691505092915050565b6000613e928383613e68565b9150826002028217905092915050565b613eab82612b64565b67ffffffffffffffff811115613ec457613ec3612f2f565b5b613ece8254613307565b613ed9828285613e15565b600060209050601f831160018114613f0c5760008415613efa578287015190505b613f048582613e86565b865550613f6c565b601f198416613f1a86613d00565b60005b82811015613f4257848901518255600182019150602085019450602081019050613f1d565b86831015613f5f5784890151613f5b601f891682613e68565b8355505b6001600288020188555050505b505050505050565b7f4e487b7100000000000000000000000000000000000000000000000000000000600052601160045260246000fd5b6000613fae82612c16565b9150613fb983612c16565b9250828203905081811115613fd157613fd0613f74565b5b92915050565b6000613fe282612c16565b9150613fed83612c16565b925082820190508082111561400557614004613f74565b5b92915050565b600081519050919050565b600082825260208201905092915050565b60006140328261400b565b61403c8185614016565b935061404c818560208601612b80565b61405581612baa565b840191505092915050565b60006080820190506140756000830187612cab565b6140826020830186612cab565b61408f6040830185612d94565b81810360608301526140a18184614027565b905095945050505050565b6000815190506140bb81612ad5565b92915050565b6000602082840312156140d7576140d6612a9f565b5b60006140e5848285016140ac565b91505092915050565b7f4e487b7100000000000000000000000000000000000000000000000000000000600052601260045260246000fd5b7f4552433732313a206d696e7420746f20746865207a65726f2061646472657373600082015250565b6000614153602083612b6f565b915061415e8261411d565b602082019050919050565b6000602082019050818103600083015261418281614146565b9050919050565b7f4552433732313a20746f6b656e20616c7265616479206d696e74656400000000600082015250565b60006141bf601c83612b6f565b91506141ca82614189565b602082019050919050565b600060208201905081810360008301526141ee816141b2565b905091905056fea26469706673582212202e66d07b55b20958d768aeea53020cb9e34d412d2b3d162b2200daa9f24c196a64736f6c63430008110033",
  "linkReferences": {},
  "deployedLinkReferences": {}
}